{
  "contractName": "Tweeter",
  "abi": [
    {
      "constant": true,
      "inputs": [
        {
          "name": "",
          "type": "address"
        },
        {
          "name": "",
          "type": "uint256"
        }
      ],
      "name": "following",
      "outputs": [
        {
          "name": "",
          "type": "address"
        }
      ],
      "payable": false,
      "stateMutability": "view",
      "type": "function"
    },
    {
      "anonymous": false,
      "inputs": [
        {
          "indexed": false,
          "name": "id",
          "type": "uint256"
        },
        {
          "indexed": true,
          "name": "author",
          "type": "address"
        },
        {
          "indexed": false,
          "name": "content",
          "type": "string"
        },
        {
          "indexed": false,
          "name": "createdAt",
          "type": "uint256"
        }
      ],
      "name": "TweetSent",
      "type": "event"
    },
    {
      "anonymous": false,
      "inputs": [
        {
          "indexed": false,
          "name": "id",
          "type": "uint256"
        },
        {
          "indexed": false,
          "name": "content",
          "type": "string"
        },
        {
          "indexed": true,
          "name": "from",
          "type": "address"
        },
        {
          "indexed": true,
          "name": "to",
          "type": "address"
        },
        {
          "indexed": false,
          "name": "createdAt",
          "type": "uint256"
        }
      ],
      "name": "MessageSent",
      "type": "event"
    },
    {
      "constant": false,
      "inputs": [
        {
          "name": "_content",
          "type": "string"
        }
      ],
      "name": "tweet",
      "outputs": [],
      "payable": false,
      "stateMutability": "nonpayable",
      "type": "function"
    },
    {
      "constant": false,
      "inputs": [
        {
          "name": "_from",
          "type": "address"
        },
        {
          "name": "_content",
          "type": "string"
        }
      ],
      "name": "tweetFrom",
      "outputs": [],
      "payable": false,
      "stateMutability": "nonpayable",
      "type": "function"
    },
    {
      "constant": false,
      "inputs": [
        {
          "name": "_content",
          "type": "string"
        },
        {
          "name": "_to",
          "type": "address"
        }
      ],
      "name": "sendMessage",
      "outputs": [],
      "payable": false,
      "stateMutability": "nonpayable",
      "type": "function"
    },
    {
      "constant": false,
      "inputs": [
        {
          "name": "_content",
          "type": "string"
        },
        {
          "name": "_from",
          "type": "address"
        },
        {
          "name": "_to",
          "type": "address"
        }
      ],
      "name": "sendMessageFrom",
      "outputs": [],
      "payable": false,
      "stateMutability": "nonpayable",
      "type": "function"
    },
    {
      "constant": false,
      "inputs": [
        {
          "name": "_followed",
          "type": "address"
        }
      ],
      "name": "follow",
      "outputs": [],
      "payable": false,
      "stateMutability": "nonpayable",
      "type": "function"
    },
    {
      "constant": false,
      "inputs": [
        {
          "name": "_operator",
          "type": "address"
        }
      ],
      "name": "allow",
      "outputs": [],
      "payable": false,
      "stateMutability": "nonpayable",
      "type": "function"
    },
    {
      "constant": false,
      "inputs": [
        {
          "name": "_operator",
          "type": "address"
        }
      ],
      "name": "disallow",
      "outputs": [],
      "payable": false,
      "stateMutability": "nonpayable",
      "type": "function"
    },
    {
      "constant": true,
      "inputs": [
        {
          "name": "count",
          "type": "uint256"
        }
      ],
      "name": "getLatestTweets",
      "outputs": [
        {
          "components": [
            {
              "name": "id",
              "type": "uint256"
            },
            {
              "name": "author",
              "type": "address"
            },
            {
              "name": "content",
              "type": "string"
            },
            {
              "name": "createdAt",
              "type": "uint256"
            }
          ],
          "name": "",
          "type": "tuple[]"
        }
      ],
      "payable": false,
      "stateMutability": "view",
      "type": "function"
    },
    {
      "constant": true,
      "inputs": [
        {
          "name": "_user",
          "type": "address"
        },
        {
          "name": "count",
          "type": "uint256"
        }
      ],
      "name": "getTweetsOf",
      "outputs": [
        {
          "components": [
            {
              "name": "id",
              "type": "uint256"
            },
            {
              "name": "author",
              "type": "address"
            },
            {
              "name": "content",
              "type": "string"
            },
            {
              "name": "createdAt",
              "type": "uint256"
            }
          ],
          "name": "",
          "type": "tuple[]"
        }
      ],
      "payable": false,
      "stateMutability": "view",
      "type": "function"
    }
  ],
  "bytecode": "0x608060405234801561001057600080fd5b506116fa806100206000396000f3fe608060405234801561001057600080fd5b506004361061009e5760003560e01c8063a9ed9cb811610066578063a9ed9cb81461016b578063c48d6d5e14610187578063c6bc463c146101a3578063fb46d4c5146101bf578063ff9913e8146101db5761009e565b8063179a21e8146100a35780634dbf27cc146100bf5780634dc0a687146100db5780635b4d42141461010b5780639139cda51461013b575b600080fd5b6100bd60048036036100b89190810190611214565b6101f7565b005b6100d960048036036100d491908101906110ba565b61024c565b005b6100f560048036036100f09190810190611280565b6102f2565b6040516101029190611504565b60405180910390f35b6101256004803603610120919081019061113b565b6104e4565b6040516101329190611504565b60405180910390f35b6101556004803603610150919081019061113b565b610737565b60405161016291906114e9565b60405180910390f35b610185600480360361018091908101906110ba565b610782565b005b6101a1600480360361019c91908101906111bc565b61081a565b005b6101bd60048036036101b891908101906110e3565b61086e565b005b6101d960048036036101d49190810190611177565b6108c1565b005b6101f560048036036101f091908101906110ba565b610913565b005b61024684848080601f016020809104026020016040519081016040528093929190818152602001838380828437600081840152601f19601f8201169050808301925050505050505083836109ab565b50505050565b600360003373ffffffffffffffffffffffffffffffffffffffff1673ffffffffffffffffffffffffffffffffffffffff1681526020019081526020016000208190806001815401808255809150509060018203906000526020600020016000909192909190916101000a81548173ffffffffffffffffffffffffffffffffffffffff021916908373ffffffffffffffffffffffffffffffffffffffff1602179055505050565b606060008211801561030657506005548211155b610345576040517f08c379a000000000000000000000000000000000000000000000000000000000815260040161033c90611526565b60405180910390fd5b60608260405190808252806020026020018201604052801561038157816020015b61036e610f63565b8152602001906001900390816103665790505b509050600080846005540390505b6005548110156104d957600080600083815260200190815260200160002090506040518060800160405280826000015481526020018260010160009054906101000a900473ffffffffffffffffffffffffffffffffffffffff1673ffffffffffffffffffffffffffffffffffffffff168152602001826002018054600181600116156101000203166002900480601f01602080910402602001604051908101604052809291908181526020018280546001816001161561010002031660029004801561049c5780601f106104715761010080835404028352916020019161049c565b820191906000526020600020905b81548152906001019060200180831161047f57829003601f168201915b5050505050815260200182600301548152508484815181106104ba57fe5b602002602001018190525060018301925050808060010191505061038f565b508192505050919050565b60606000600160008573ffffffffffffffffffffffffffffffffffffffff1673ffffffffffffffffffffffffffffffffffffffff168152602001908152602001600020905060008311801561053d575080805490508311155b61057c576040517f08c379a000000000000000000000000000000000000000000000000000000000815260040161057390611526565b60405180910390fd5b6060836040519080825280602002602001820160405280156105b857816020015b6105a5610f63565b81526020019060019003908161059d5790505b5090506000808584805490500390505b838054905081101561072a5760008060008684815481106105e557fe5b9060005260206000200154815260200190815260200160002090506040518060800160405280826000015481526020018260010160009054906101000a900473ffffffffffffffffffffffffffffffffffffffff1673ffffffffffffffffffffffffffffffffffffffff168152602001826002018054600181600116156101000203166002900480601f0160208091040260200160405190810160405280929190818152602001828054600181600116156101000203166002900480156106ed5780601f106106c2576101008083540402835291602001916106ed565b820191906000526020600020905b8154815290600101906020018083116106d057829003601f168201915b50505050508152602001826003015481525084848151811061070b57fe5b60200260200101819052506001830192505080806001019150506105c8565b5081935050505092915050565b6003602052816000526040600020818154811061075057fe5b906000526020600020016000915091509054906101000a900473ffffffffffffffffffffffffffffffffffffffff1681565b6000600460003373ffffffffffffffffffffffffffffffffffffffff1673ffffffffffffffffffffffffffffffffffffffff16815260200190815260200160002060008373ffffffffffffffffffffffffffffffffffffffff1673ffffffffffffffffffffffffffffffffffffffff16815260200190815260200160002060006101000a81548160ff02191690831515021790555050565b61086983838080601f016020809104026020016040519081016040528093929190818152602001838380828437600081840152601f19601f8201169050808301925050505050505033836109ab565b505050565b6108bc8383838080601f016020809104026020016040519081016040528093929190818152602001838380828437600081840152601f19601f82011690508083019250505050505050610cbe565b505050565b61090f3383838080601f016020809104026020016040519081016040528093929190818152602001838380828437600081840152601f19601f82011690508083019250505050505050610cbe565b5050565b6001600460003373ffffffffffffffffffffffffffffffffffffffff1673ffffffffffffffffffffffffffffffffffffffff16815260200190815260200160002060008373ffffffffffffffffffffffffffffffffffffffff1673ffffffffffffffffffffffffffffffffffffffff16815260200190815260200160002060006101000a81548160ff02191690831515021790555050565b8160011515600460008373ffffffffffffffffffffffffffffffffffffffff1673ffffffffffffffffffffffffffffffffffffffff16815260200190815260200160002060003373ffffffffffffffffffffffffffffffffffffffff1673ffffffffffffffffffffffffffffffffffffffff16815260200190815260200160002060009054906101000a900460ff1615151480610a7357508073ffffffffffffffffffffffffffffffffffffffff163373ffffffffffffffffffffffffffffffffffffffff16145b610ab2576040517f08c379a0000000000000000000000000000000000000000000000000000000008152600401610aa990611546565b60405180910390fd5b60008273ffffffffffffffffffffffffffffffffffffffff168473ffffffffffffffffffffffffffffffffffffffff16019050600260008281526020019081526020016000206040518060a0016040528060065481526020018781526020018673ffffffffffffffffffffffffffffffffffffffff1681526020018573ffffffffffffffffffffffffffffffffffffffff1681526020014281525090806001815401808255809150509060018203906000526020600020906005020160009091929091909150600082015181600001556020820151816001019080519060200190610b9e929190610fa1565b5060408201518160020160006101000a81548173ffffffffffffffffffffffffffffffffffffffff021916908373ffffffffffffffffffffffffffffffffffffffff16021790555060608201518160030160006101000a81548173ffffffffffffffffffffffffffffffffffffffff021916908373ffffffffffffffffffffffffffffffffffffffff160217905550608082015181600401555050508273ffffffffffffffffffffffffffffffffffffffff168473ffffffffffffffffffffffffffffffffffffffff167f053227a5bdcc96607ea58ea40dd04c9394ddebceb1cd539ad1289d8b074bc4eb6006548842604051610c9d93929190611566565b60405180910390a36006600081548092919060010191905055505050505050565b8160011515600460008373ffffffffffffffffffffffffffffffffffffffff1673ffffffffffffffffffffffffffffffffffffffff16815260200190815260200160002060003373ffffffffffffffffffffffffffffffffffffffff1673ffffffffffffffffffffffffffffffffffffffff16815260200190815260200160002060009054906101000a900460ff1615151480610d8657508073ffffffffffffffffffffffffffffffffffffffff163373ffffffffffffffffffffffffffffffffffffffff16145b610dc5576040517f08c379a0000000000000000000000000000000000000000000000000000000008152600401610dbc90611546565b60405180910390fd5b604051806080016040528060055481526020018473ffffffffffffffffffffffffffffffffffffffff1681526020018381526020014281525060008060055481526020019081526020016000206000820151816000015560208201518160010160006101000a81548173ffffffffffffffffffffffffffffffffffffffff021916908373ffffffffffffffffffffffffffffffffffffffff1602179055506040820151816002019080519060200190610e7f929190610fa1565b5060608201518160030155905050600160008473ffffffffffffffffffffffffffffffffffffffff1673ffffffffffffffffffffffffffffffffffffffff16815260200190815260200160002060055490806001815401808255809150509060018203906000526020600020016000909192909190915055508273ffffffffffffffffffffffffffffffffffffffff167f8d6b17b300471dd2e4fef05e2e70f50c236372b9a4aaf37cdb52644d99bc21a76005548442604051610f4493929190611566565b60405180910390a2600560008154809291906001019190505550505050565b604051806080016040528060008152602001600073ffffffffffffffffffffffffffffffffffffffff16815260200160608152602001600081525090565b828054600181600116156101000203166002900490600052602060002090601f016020900481019282601f10610fe257805160ff1916838001178555611010565b82800160010185558215611010579182015b8281111561100f578251825591602001919060010190610ff4565b5b50905061101d9190611021565b5090565b61104391905b8082111561103f576000816000905550600101611027565b5090565b90565b60008135905061105581611692565b92915050565b60008083601f84011261106d57600080fd5b8235905067ffffffffffffffff81111561108657600080fd5b60208301915083600182028301111561109e57600080fd5b9250929050565b6000813590506110b4816116a9565b92915050565b6000602082840312156110cc57600080fd5b60006110da84828501611046565b91505092915050565b6000806000604084860312156110f857600080fd5b600061110686828701611046565b935050602084013567ffffffffffffffff81111561112357600080fd5b61112f8682870161105b565b92509250509250925092565b6000806040838503121561114e57600080fd5b600061115c85828601611046565b925050602061116d858286016110a5565b9150509250929050565b6000806020838503121561118a57600080fd5b600083013567ffffffffffffffff8111156111a457600080fd5b6111b08582860161105b565b92509250509250929050565b6000806000604084860312156111d157600080fd5b600084013567ffffffffffffffff8111156111eb57600080fd5b6111f78682870161105b565b9350935050602061120a86828701611046565b9150509250925092565b6000806000806060858703121561122a57600080fd5b600085013567ffffffffffffffff81111561124457600080fd5b6112508782880161105b565b9450945050602061126387828801611046565b925050604061127487828801611046565b91505092959194509250565b60006020828403121561129257600080fd5b60006112a0848285016110a5565b91505092915050565b60006112b58383611468565b905092915050565b6112c681611612565b82525050565b6112d581611612565b82525050565b60006112e6826115b1565b6112f081856115df565b935083602082028501611302856115a4565b8060005b8581101561133e578484038952815161131f85826112a9565b945061132a836115d2565b925060208a01995050600181019050611306565b50829750879550505050505092915050565b600061135b826115c7565b6113658185611601565b935061137581856020860161164e565b61137e81611681565b840191505092915050565b6000611394826115bc565b61139e81856115f0565b93506113ae81856020860161164e565b6113b781611681565b840191505092915050565b60006113cf602483611601565b91507f546f6f20666577206f7220746f6f206d616e792074776565747320746f20726560008301527f7475726e000000000000000000000000000000000000000000000000000000006020830152604082019050919050565b6000611435601783611601565b91507f4f70657261746f72206e6f7420617574686f72697a65640000000000000000006000830152602082019050919050565b600060808301600083015161148060008601826114cb565b50602083015161149360208601826112bd565b50604083015184820360408601526114ab8282611389565b91505060608301516114c060608601826114cb565b508091505092915050565b6114d481611644565b82525050565b6114e381611644565b82525050565b60006020820190506114fe60008301846112cc565b92915050565b6000602082019050818103600083015261151e81846112db565b905092915050565b6000602082019050818103600083015261153f816113c2565b9050919050565b6000602082019050818103600083015261155f81611428565b9050919050565b600060608201905061157b60008301866114da565b818103602083015261158d8185611350565b905061159c60408301846114da565b949350505050565b6000602082019050919050565b600081519050919050565b600081519050919050565b600081519050919050565b6000602082019050919050565b600082825260208201905092915050565b600082825260208201905092915050565b600082825260208201905092915050565b600061161d82611624565b9050919050565b600073ffffffffffffffffffffffffffffffffffffffff82169050919050565b6000819050919050565b60005b8381101561166c578082015181840152602081019050611651565b8381111561167b576000848401525b50505050565b6000601f19601f8301169050919050565b61169b81611612565b81146116a657600080fd5b50565b6116b281611644565b81146116bd57600080fd5b5056fea265627a7a72305820bfa4be289cbf889b22e820aa25c8a52167de16b908e43e5e8d4fbdd4e7de8fcd6c6578706572696d656e74616cf50037",
  "source": "pragma solidity ^0.5.8;\npragma experimental ABIEncoderV2;\n\n//1. Send tweet\n//2. Send private messages\n//3. Follow other people\n//4. Get list of tweets\n//5. Implement an API\ncontract Tweeter {\n    struct Tweet {\n        uint id;\n        address author;\n        string content;\n        uint createdAt;\n    }\n    \n    struct Message {\n        uint id;\n        string content;\n        address from;\n        address to;\n        uint createdAt;\n    }\n    mapping(uint => Tweet) private tweets;\n    mapping(address => uint[]) private tweetsOf;\n    mapping(uint => Message[]) private conversations;\n    mapping(address => address[]) public following;\n    mapping(address => mapping(address => bool)) private operators;\n    uint private nextTweetId;\n    uint private nextMessageId;\n    \n    event TweetSent (\n        uint id,\n        address indexed author,\n        string content,\n        uint createdAt\n    );\n    \n    event MessageSent(\n        uint id,\n        string content,\n        address indexed from,\n        address indexed to,\n        uint createdAt\n    );\n    \n    function tweet(string calldata _content) external {\n        _tweet(msg.sender, _content);\n    }\n    \n    function tweetFrom(address _from, string calldata _content) external {\n        _tweet(_from, _content);\n    }\n    \n    function sendMessage(\n        string calldata _content,\n        address _to)\n        external {\n         _sendMessage(_content, msg.sender, _to);  \n    }\n    \n    function sendMessageFrom(\n        string calldata _content,\n        address _from,\n        address _to)\n        external {\n        _sendMessage(_content, _from, _to);    \n    }\n    \n    function follow(address _followed) external {\n        following[msg.sender].push(_followed);\n    }\n\n    function allow(address _operator) external {\n      operators[msg.sender][_operator] = true;\n    }\n\n    function disallow(address _operator) external {\n      operators[msg.sender][_operator] = false;\n    }\n    \n    function getLatestTweets(uint count) view external returns(Tweet[] memory) {\n        require(count > 0 && count <= nextTweetId, 'Too few or too many tweets to return');\n        Tweet[] memory _tweets = new Tweet[](count);\n        uint j; //This was missing in original smart contract\n        for(uint i = nextTweetId - count; i < nextTweetId; i++) {\n            Tweet storage _tweet = tweets[i];\n            _tweets[j] = Tweet(\n                _tweet.id, \n                _tweet.author, \n                _tweet.content, \n                _tweet.createdAt\n            );\n            j += 1;\n        }\n        return _tweets;\n    }\n    \n    function getTweetsOf(address _user, uint count) \n      view \n      external \n      returns(Tweet[] memory) {\n        uint[] storage tweetIds = tweetsOf[_user];\n        require(count > 0 && count <= tweetIds.length, 'Too few or too many tweets to return');\n        Tweet[] memory _tweets = new Tweet[](count);\n        uint j; //This was missing in original smart contract\n        for(uint i = tweetIds.length - count; i < tweetIds.length; i++) {\n          Tweet storage _tweet = tweets[tweetIds[i]];\n          _tweets[j] = Tweet(\n              _tweet.id, \n              _tweet.author, \n              _tweet.content, \n              _tweet.createdAt\n          );\n          j += 1;\n        }\n        return _tweets;\n    }\n    \n    function _tweet(\n        address _from, \n        string memory _content) \n        internal\n        canOperate(_from) {\n        tweets[nextTweetId] = Tweet(nextTweetId, _from, _content, now);\n        tweetsOf[_from].push(nextTweetId);\n        emit TweetSent(nextTweetId, _from, _content, now);\n        nextTweetId++;\n    }\n        \n    function _sendMessage(\n        string memory _content,\n        address _from,\n        address _to)\n        internal\n        canOperate(_from) {\n        uint conversationId = uint(_from) + uint(_to);\n        conversations[conversationId].push(Message(\n            nextMessageId, \n            _content, \n            _from,\n            _to, \n            now)\n        );\n        emit MessageSent(nextMessageId, _content, _from, _to, now);\n        nextMessageId++;  \n    }\n    \n    modifier canOperate(address _from) {\n        require(\n          operators[_from][msg.sender] == true || msg.sender == _from, \n          'Operator not authorized');\n        _;\n    }\n    \n}\n",
  "sourcePath": "/Users/louise/Desktop/dapp-30/tests/eattheblocks-pro/dapp-30/day25-tweeter/frontend/start/contracts/Tweeter.sol",
  "compiler": {
    "name": "solc",
    "version": "0.5.8+commit.23d335f2.Emscripten.clang"
  },
  "schemaVersion": "3.4.3",
  "updatedAt": "2021-09-07T16:45:45.039Z",
  "networkType": "ethereum",
  "devdoc": {
    "methods": {}
  },
  "userdoc": {
    "methods": {}
  }
}