{
  "contractName": "Lottery",
  "abi": [
    {
      "constant": true,
      "inputs": [],
      "name": "currentState",
      "outputs": [
        {
          "name": "",
          "type": "uint8"
        }
      ],
      "payable": false,
      "stateMutability": "view",
      "type": "function"
    },
    {
      "constant": true,
      "inputs": [],
      "name": "houseFee",
      "outputs": [
        {
          "name": "",
          "type": "uint256"
        }
      ],
      "payable": false,
      "stateMutability": "view",
      "type": "function"
    },
    {
      "constant": true,
      "inputs": [],
      "name": "betSize",
      "outputs": [
        {
          "name": "",
          "type": "uint256"
        }
      ],
      "payable": false,
      "stateMutability": "view",
      "type": "function"
    },
    {
      "constant": true,
      "inputs": [],
      "name": "betCount",
      "outputs": [
        {
          "name": "",
          "type": "uint256"
        }
      ],
      "payable": false,
      "stateMutability": "view",
      "type": "function"
    },
    {
      "constant": true,
      "inputs": [],
      "name": "winner",
      "outputs": [
        {
          "name": "",
          "type": "address"
        }
      ],
      "payable": false,
      "stateMutability": "view",
      "type": "function"
    },
    {
      "constant": true,
      "inputs": [
        {
          "name": "",
          "type": "uint256"
        }
      ],
      "name": "players",
      "outputs": [
        {
          "name": "",
          "type": "address"
        }
      ],
      "payable": false,
      "stateMutability": "view",
      "type": "function"
    },
    {
      "constant": true,
      "inputs": [],
      "name": "admin",
      "outputs": [
        {
          "name": "",
          "type": "address"
        }
      ],
      "payable": false,
      "stateMutability": "view",
      "type": "function"
    },
    {
      "inputs": [
        {
          "name": "fee",
          "type": "uint256"
        }
      ],
      "payable": false,
      "stateMutability": "nonpayable",
      "type": "constructor"
    },
    {
      "constant": true,
      "inputs": [],
      "name": "getPlayers",
      "outputs": [
        {
          "name": "",
          "type": "address[]"
        }
      ],
      "payable": false,
      "stateMutability": "view",
      "type": "function"
    },
    {
      "constant": false,
      "inputs": [
        {
          "name": "count",
          "type": "uint256"
        },
        {
          "name": "size",
          "type": "uint256"
        }
      ],
      "name": "createBet",
      "outputs": [],
      "payable": false,
      "stateMutability": "nonpayable",
      "type": "function"
    },
    {
      "constant": false,
      "inputs": [],
      "name": "bet",
      "outputs": [],
      "payable": true,
      "stateMutability": "payable",
      "type": "function"
    },
    {
      "constant": false,
      "inputs": [],
      "name": "cancel",
      "outputs": [],
      "payable": false,
      "stateMutability": "nonpayable",
      "type": "function"
    }
  ],
  "bytecode": "0x60806040526000600160006101000a81548160ff0219169083600181111561002357fe5b021790555034801561003457600080fd5b50604051602080610d6e8339810180604052602081101561005457600080fd5b81019080805190602001909291905050506001811180156100755750606381105b15156100e9576040517f08c379a000000000000000000000000000000000000000000000000000000000815260040180806020018281038252601e8152602001807f6665652073686f756c64206265206265747765656e203120616e64203939000081525060200191505060405180910390fd5b33600560006101000a81548173ffffffffffffffffffffffffffffffffffffffff021916908373ffffffffffffffffffffffffffffffffffffffff1602179055508060048190555050610c2d806101416000396000f3fe6080604052600436106100b9576000357c010000000000000000000000000000000000000000000000000000000090048063cf09449711610081578063cf094497146101c3578063dfbf53ae146101ee578063ea8a1af014610245578063f71d96cb1461025c578063f851a440146102d7578063fff058e61461032e576100b9565b80630c3f6acf146100be5780630ed469b8146100f757806311610c25146101225780635d1d3e261461012c5780638b5b9ccc14610157575b600080fd5b3480156100ca57600080fd5b506100d3610373565b604051808260018111156100e357fe5b60ff16815260200191505060405180910390f35b34801561010357600080fd5b5061010c610386565b6040518082815260200191505060405180910390f35b61012a61038c565b005b34801561013857600080fd5b5061014161061e565b6040518082815260200191505060405180910390f35b34801561016357600080fd5b5061016c610624565b6040518080602001828103825283818151815260200191508051906020019060200280838360005b838110156101af578082015181840152602081019050610194565b505050509050019250505060405180910390f35b3480156101cf57600080fd5b506101d861070a565b6040518082815260200191505060405180910390f35b3480156101fa57600080fd5b50610203610710565b604051808273ffffffffffffffffffffffffffffffffffffffff1673ffffffffffffffffffffffffffffffffffffffff16815260200191505060405180910390f35b34801561025157600080fd5b5061025a610736565b005b34801561026857600080fd5b506102956004803603602081101561027f57600080fd5b8101908080359060200190929190505050610952565b604051808273ffffffffffffffffffffffffffffffffffffffff1673ffffffffffffffffffffffffffffffffffffffff16815260200191505060405180910390f35b3480156102e357600080fd5b506102ec610990565b604051808273ffffffffffffffffffffffffffffffffffffffff1673ffffffffffffffffffffffffffffffffffffffff16815260200191505060405180910390f35b34801561033a57600080fd5b506103716004803603604081101561035157600080fd5b8101908080359060200190929190803590602001909291905050506109b6565b005b600160009054906101000a900460ff1681565b60045481565b60018060009054906101000a900460ff1660018111156103a857fe5b8160018111156103b457fe5b14151561040c576040517f08c379a0000000000000000000000000000000000000000000000000000000008152600401808060200182810382526021815260200180610be16021913960400191505060405180910390fd5b60035434141515610468576040517f08c379a0000000000000000000000000000000000000000000000000000000008152600401808060200182810382526021815260200180610bc06021913960400191505060405180910390fd5b60003390806001815401808255809150509060018203906000526020600020016000909192909190916101000a81548173ffffffffffffffffffffffffffffffffffffffff021916908373ffffffffffffffffffffffffffffffffffffffff16021790555050600254600080549050141561061b5760006104ea600254610b32565b90506000818154811015156104fb57fe5b9060005260206000200160009054906101000a900473ffffffffffffffffffffffffffffffffffffffff16600660006101000a81548173ffffffffffffffffffffffffffffffffffffffff021916908373ffffffffffffffffffffffffffffffffffffffff160217905550600660009054906101000a900473ffffffffffffffffffffffffffffffffffffffff1673ffffffffffffffffffffffffffffffffffffffff166108fc606460045460640360025460035402028115156105bb57fe5b049081150290604051600060405180830381858888f193505050501580156105e7573d6000803e3d6000fd5b506000600160006101000a81548160ff0219169083600181111561060757fe5b02179055506000806106199190610b79565b505b50565b60035481565b60608060008054905060405190808252806020026020018201604052801561065b5781602001602082028038833980820191505090505b50905060008090505b6000805490508110156107025760008181548110151561068057fe5b9060005260206000200160009054906101000a900473ffffffffffffffffffffffffffffffffffffffff1682828151811015156106b957fe5b9060200190602002019073ffffffffffffffffffffffffffffffffffffffff16908173ffffffffffffffffffffffffffffffffffffffff16815250508080600101915050610664565b508091505090565b60025481565b600660009054906101000a900473ffffffffffffffffffffffffffffffffffffffff1681565b60018060009054906101000a900460ff16600181111561075257fe5b81600181111561075e57fe5b1415156107b6576040517f08c379a0000000000000000000000000000000000000000000000000000000008152600401808060200182810382526021815260200180610be16021913960400191505060405180910390fd5b600560009054906101000a900473ffffffffffffffffffffffffffffffffffffffff1673ffffffffffffffffffffffffffffffffffffffff163373ffffffffffffffffffffffffffffffffffffffff1614151561087b576040517f08c379a000000000000000000000000000000000000000000000000000000000815260040180806020018281038252600a8152602001807f6f6e6c792061646d696e0000000000000000000000000000000000000000000081525060200191505060405180910390fd5b60008090505b60008054905081101561091d5760008181548110151561089d57fe5b9060005260206000200160009054906101000a900473ffffffffffffffffffffffffffffffffffffffff1673ffffffffffffffffffffffffffffffffffffffff166108fc6003549081150290604051600060405180830381858888f1935050505015801561090f573d6000803e3d6000fd5b508080600101915050610881565b5060008061092b9190610b79565b6000600160006101000a81548160ff0219169083600181111561094a57fe5b021790555050565b60008181548110151561096157fe5b906000526020600020016000915054906101000a900473ffffffffffffffffffffffffffffffffffffffff1681565b600560009054906101000a900473ffffffffffffffffffffffffffffffffffffffff1681565b6000600160009054906101000a900460ff1660018111156109d357fe5b8160018111156109df57fe5b141515610a37576040517f08c379a0000000000000000000000000000000000000000000000000000000008152600401808060200182810382526021815260200180610be16021913960400191505060405180910390fd5b600560009054906101000a900473ffffffffffffffffffffffffffffffffffffffff1673ffffffffffffffffffffffffffffffffffffffff163373ffffffffffffffffffffffffffffffffffffffff16141515610afc576040517f08c379a000000000000000000000000000000000000000000000000000000000815260040180806020018281038252600a8152602001807f6f6e6c792061646d696e0000000000000000000000000000000000000000000081525060200191505060405180910390fd5b826002819055508160038190555060018060006101000a81548160ff02191690836001811115610b2857fe5b0217905550505050565b600081424460405160200180838152602001828152602001925050506040516020818303038152906040528051906020012060019004811515610b7157fe5b069050919050565b5080546000825590600052602060002090810190610b979190610b9a565b50565b610bbc91905b80821115610bb8576000816000905550600101610ba0565b5090565b9056fe63616e206f6e6c79206265742065786163746c7920746865206265742073697a6563757272656e7420737461746520646f6573206e6f7420616c6c6f772074686973a165627a7a72305820259c9d7623b4ac6d5da75ff472d69f8f70a5fcffd3d53c64017b0566ff7c1a980029",
  "source": "pragma solidity ^0.5.4;\n\ncontract Lottery {\n    enum State {\n        IDLE,\n        BETTING\n    }\n    address payable[] public players;\n    State public currentState = State.IDLE;\n    uint public betCount;\n    uint public betSize;\n    uint public houseFee;\n    address public admin;\n    address payable public winner;\n    \n    constructor(uint fee) public {\n        require(fee > 1 && fee < 99, 'fee should be between 1 and 99');\n        admin = msg.sender;\n        houseFee = fee;\n    }\n\n    function getPlayers() \n      external \n      view \n      returns(address[] memory) {\n      address[] memory _players = new address[](players.length);\n      for(uint i = 0; i < players.length; i++) { \n          _players[i] = players[i];\n      }\n      return _players;\n    }\n    \n    function createBet(uint count, uint size) \n        external \n        inState(State.IDLE) \n        onlyAdmin() {\n        betCount = count;\n        betSize = size;\n        currentState = State.BETTING;\n    }\n    \n    function bet() \n        external \n        payable \n        inState(State.BETTING) {\n        require(msg.value == betSize, 'can only bet exactly the bet size');\n        players.push(msg.sender);\n        if(players.length == betCount ) {\n            uint winnerId= _randomModulo(betCount);\n            winner = players[winnerId];\n            winner.transfer((betSize * betCount) * (100 - houseFee) / 100);\n            currentState = State.IDLE;\n            delete players;\n        }\n    }\n    \n    function cancel() \n        external \n        inState(State.BETTING) \n        onlyAdmin() {\n        for(uint i = 0; i < players.length; i++) {\n            players[i].transfer(betSize);\n        }\n        delete players;\n        currentState = State.IDLE;\n    }\n    \n    function _randomModulo(uint modulo) view internal returns(uint) {\n        return uint(keccak256(abi.encodePacked(block.timestamp, block.difficulty))) % modulo;\n    }\n    \n    modifier inState(State state) {\n        require(state == currentState, 'current state does not allow this');\n        _;\n    }\n    \n    modifier onlyAdmin() {\n        require(msg.sender == admin, 'only admin');\n        _;\n    }\n}\n",
  "sourcePath": "/Users/louise/Desktop/dapp-30/tests/eattheblocks-pro/dapp-30/day18-lottery/frontend/start/contracts/Lottery.sol",
  "compiler": {
    "name": "solc",
    "version": "0.5.4+commit.9549d8ff.Emscripten.clang"
  },
  "schemaVersion": "3.4.3",
  "updatedAt": "2021-09-07T12:58:42.070Z",
  "networkType": "ethereum",
  "devdoc": {
    "methods": {}
  },
  "userdoc": {
    "methods": {}
  }
}