{
  "contractName": "Original",
  "abi": [
    {
      "inputs": [],
      "payable": false,
      "stateMutability": "nonpayable",
      "type": "constructor"
    },
    {
      "anonymous": false,
      "inputs": [
        {
          "indexed": false,
          "internalType": "string",
          "name": "_ipfsHash",
          "type": "string"
        },
        {
          "indexed": false,
          "internalType": "address",
          "name": "_address",
          "type": "address"
        }
      ],
      "name": "artSent",
      "type": "event"
    },
    {
      "anonymous": false,
      "inputs": [
        {
          "indexed": false,
          "internalType": "uint256",
          "name": "tipAmount",
          "type": "uint256"
        },
        {
          "indexed": false,
          "internalType": "address payable",
          "name": "author",
          "type": "address"
        }
      ],
      "name": "payAuthor",
      "type": "event"
    },
    {
      "constant": true,
      "inputs": [
        {
          "internalType": "address",
          "name": "",
          "type": "address"
        },
        {
          "internalType": "uint256",
          "name": "",
          "type": "uint256"
        }
      ],
      "name": "artOwnership",
      "outputs": [
        {
          "internalType": "string",
          "name": "",
          "type": "string"
        }
      ],
      "payable": false,
      "stateMutability": "view",
      "type": "function"
    },
    {
      "constant": true,
      "inputs": [
        {
          "internalType": "uint256",
          "name": "",
          "type": "uint256"
        }
      ],
      "name": "artistlist",
      "outputs": [
        {
          "internalType": "address",
          "name": "",
          "type": "address"
        }
      ],
      "payable": false,
      "stateMutability": "view",
      "type": "function"
    },
    {
      "constant": true,
      "inputs": [
        {
          "internalType": "address",
          "name": "",
          "type": "address"
        },
        {
          "internalType": "uint256",
          "name": "",
          "type": "uint256"
        }
      ],
      "name": "controlAccess",
      "outputs": [
        {
          "internalType": "string",
          "name": "",
          "type": "string"
        }
      ],
      "payable": false,
      "stateMutability": "view",
      "type": "function"
    },
    {
      "constant": true,
      "inputs": [
        {
          "internalType": "string",
          "name": "",
          "type": "string"
        }
      ],
      "name": "ipfsHashestoNames",
      "outputs": [
        {
          "internalType": "bytes32",
          "name": "",
          "type": "bytes32"
        }
      ],
      "payable": false,
      "stateMutability": "view",
      "type": "function"
    },
    {
      "constant": true,
      "inputs": [
        {
          "internalType": "address",
          "name": "",
          "type": "address"
        }
      ],
      "name": "numOfItems",
      "outputs": [
        {
          "internalType": "uint256",
          "name": "",
          "type": "uint256"
        }
      ],
      "payable": false,
      "stateMutability": "view",
      "type": "function"
    },
    {
      "constant": false,
      "inputs": [
        {
          "internalType": "string",
          "name": "_ipfsHash",
          "type": "string"
        },
        {
          "internalType": "bytes32",
          "name": "_name",
          "type": "bytes32"
        }
      ],
      "name": "sendArt",
      "outputs": [],
      "payable": false,
      "stateMutability": "nonpayable",
      "type": "function"
    },
    {
      "constant": false,
      "inputs": [
        {
          "internalType": "string",
          "name": "_ipfsHash",
          "type": "string"
        }
      ],
      "name": "getAccess",
      "outputs": [],
      "payable": true,
      "stateMutability": "payable",
      "type": "function"
    },
    {
      "constant": true,
      "inputs": [],
      "name": "getArtistList",
      "outputs": [
        {
          "internalType": "address[]",
          "name": "",
          "type": "address[]"
        }
      ],
      "payable": false,
      "stateMutability": "view",
      "type": "function"
    },
    {
      "constant": true,
      "inputs": [
        {
          "internalType": "string",
          "name": "_ipfsHash",
          "type": "string"
        }
      ],
      "name": "ifAccess",
      "outputs": [
        {
          "internalType": "bool",
          "name": "",
          "type": "bool"
        }
      ],
      "payable": false,
      "stateMutability": "view",
      "type": "function"
    }
  ],
  "bytecode": "0x608060405234801561001057600080fd5b5061121f806100206000396000f3fe6080604052600436106100865760003560e01c80638978a6a2116100595780638978a6a21461037e5780638f55a850146104395780639926cca9146104a5578063ba65201b14610579578063ff8a895d146105f457610086565b80632f7dd94d1461008b57806357dda9d6146100f05780635a7882a8146101d05780636bcf695e146102ac575b600080fd5b34801561009757600080fd5b506100da600480360360208110156100ae57600080fd5b81019080803573ffffffffffffffffffffffffffffffffffffffff1690602001909291905050506106c8565b6040518082815260200191505060405180910390f35b3480156100fc57600080fd5b506101b66004803603602081101561011357600080fd5b810190808035906020019064010000000081111561013057600080fd5b82018360208201111561014257600080fd5b8035906020019184600183028401116401000000008311171561016457600080fd5b91908080601f016020809104026020016040519081016040528093929190818152602001838380828437600081840152601f19601f8201169050808301925050505050505091929192905050506106e0565b604051808215151515815260200191505060405180910390f35b3480156101dc57600080fd5b50610296600480360360208110156101f357600080fd5b810190808035906020019064010000000081111561021057600080fd5b82018360208201111561022257600080fd5b8035906020019184600183028401116401000000008311171561024457600080fd5b91908080601f016020809104026020016040519081016040528093929190818152602001838380828437600081840152601f19601f82011690508083019250505050505050919291929050505061089f565b6040518082815260200191505060405180910390f35b3480156102b857600080fd5b5061037c600480360360408110156102cf57600080fd5b81019080803590602001906401000000008111156102ec57600080fd5b8201836020820111156102fe57600080fd5b8035906020019184600183028401116401000000008311171561032057600080fd5b91908080601f016020809104026020016040519081016040528093929190818152602001838380828437600081840152601f19601f820116905080830192505050505050509192919290803590602001909291905050506108cd565b005b6104376004803603602081101561039457600080fd5b81019080803590602001906401000000008111156103b157600080fd5b8201836020820111156103c357600080fd5b803590602001918460018302840111640100000000831117156103e557600080fd5b91908080601f016020809104026020016040519081016040528093929190818152602001838380828437600081840152601f19601f820116905080830192505050505050509192919290505050610d22565b005b34801561044557600080fd5b5061044e610eef565b6040518080602001828103825283818151815260200191508051906020019060200280838360005b83811015610491578082015181840152602081019050610476565b505050509050019250505060405180910390f35b3480156104b157600080fd5b506104fe600480360360408110156104c857600080fd5b81019080803573ffffffffffffffffffffffffffffffffffffffff16906020019092919080359060200190929190505050610f7d565b6040518080602001828103825283818151815260200191508051906020019080838360005b8381101561053e578082015181840152602081019050610523565b50505050905090810190601f16801561056b5780820380516001836020036101000a031916815260200191505b509250505060405180910390f35b34801561058557600080fd5b506105b26004803603602081101561059c57600080fd5b8101908080359060200190929190505050611043565b604051808273ffffffffffffffffffffffffffffffffffffffff1673ffffffffffffffffffffffffffffffffffffffff16815260200191505060405180910390f35b34801561060057600080fd5b5061064d6004803603604081101561061757600080fd5b81019080803573ffffffffffffffffffffffffffffffffffffffff1690602001909291908035906020019092919050505061107f565b6040518080602001828103825283818151815260200191508051906020019080838360005b8381101561068d578082015181840152602081019050610672565b50505050905090810190601f1680156106ba5780820380516001836020036101000a031916815260200191505b509250505060405180910390f35b60046020528060005260406000206000915090505481565b600080600090505b600560003373ffffffffffffffffffffffffffffffffffffffff1673ffffffffffffffffffffffffffffffffffffffff168152602001908152602001600020805490508160ff16101561089457826040516020018082805190602001908083835b6020831061076c5780518252602082019150602081019050602083039250610749565b6001836020036101000a03801982511681845116808217855250505050505090500191505060405160208183030381529060405280519060200120600560003373ffffffffffffffffffffffffffffffffffffffff1673ffffffffffffffffffffffffffffffffffffffff1681526020019081526020016000208260ff16815481106107f457fe5b90600052602060002001604051602001808280546001816001161561010002031660029004801561085c5780601f1061083a57610100808354040283529182019161085c565b820191906000526020600020905b815481529060010190602001808311610848575b505091505060405160208183030381529060405280519060200120141561088757600191505061089a565b80806001019150506106e8565b50600090505b919050565b6002818051602081018201805184825260208301602085012081835280955050505050506000915090505481565b60608290506000815114156108e157600080fd5b600360003373ffffffffffffffffffffffffffffffffffffffff1673ffffffffffffffffffffffffffffffffffffffff16815260200190815260200160002083908060018154018082558091505090600182039060005260206000200160009091929091909150908051906020019061095b929190611145565b5050336006846040518082805190602001908083835b602083106109945780518252602082019150602081019050602083039250610971565b6001836020036101000a038019825116818451168082178552505050505050905001915050908152602001604051809103902060006101000a81548173ffffffffffffffffffffffffffffffffffffffff021916908373ffffffffffffffffffffffffffffffffffffffff160217905550600560003373ffffffffffffffffffffffffffffffffffffffff1673ffffffffffffffffffffffffffffffffffffffff168152602001908152602001600020839080600181540180825580915050906001820390600052602060002001600090919290919091509080519060200190610a7f929190611145565b5050600460003373ffffffffffffffffffffffffffffffffffffffff1673ffffffffffffffffffffffffffffffffffffffff16815260200190815260200160002060008154809291906001019190505550816002846040518082805190602001908083835b60208310610b075780518252602082019150602081019050602083039250610ae4565b6001836020036101000a038019825116818451168082178552505050505050905001915050908152602001604051809103902081905550600160003373ffffffffffffffffffffffffffffffffffffffff1673ffffffffffffffffffffffffffffffffffffffff16815260200190815260200160002060009054906101000a900460ff16610c4d5760003390806001815401808255809150509060018203906000526020600020016000909192909190916101000a81548173ffffffffffffffffffffffffffffffffffffffff021916908373ffffffffffffffffffffffffffffffffffffffff1602179055505060018060003373ffffffffffffffffffffffffffffffffffffffff1673ffffffffffffffffffffffffffffffffffffffff16815260200190815260200160002060006101000a81548160ff0219169083151502179055505b7f365c634d40c67680560488f69008bdcfa60220c12ec38e0eeb35d91034268c73833360405180806020018373ffffffffffffffffffffffffffffffffffffffff1673ffffffffffffffffffffffffffffffffffffffff168152602001828103825284818151815260200191508051906020019080838360005b83811015610ce2578082015181840152602081019050610cc7565b50505050905090810190601f168015610d0f5780820380516001836020036101000a031916815260200191505b50935050505060405180910390a1505050565b60003411610d2f57600080fd5b60006006826040518082805190602001908083835b60208310610d675780518252602082019150602081019050602083039250610d44565b6001836020036101000a038019825116818451168082178552505050505050905001915050908152602001604051809103902060009054906101000a900473ffffffffffffffffffffffffffffffffffffffff1690508073ffffffffffffffffffffffffffffffffffffffff166108fc349081150290604051600060405180830381858888f19350505050158015610e03573d6000803e3d6000fd5b50600560003373ffffffffffffffffffffffffffffffffffffffff1673ffffffffffffffffffffffffffffffffffffffff168152602001908152602001600020829080600181540180825580915050906001820390600052602060002001600090919290919091509080519060200190610e7e929190611145565b50507fb0bd578255f69119d3cbdce9e737c1020f244499d7dfe44ec555aae6461810ec3482604051808381526020018273ffffffffffffffffffffffffffffffffffffffff1673ffffffffffffffffffffffffffffffffffffffff1681526020019250505060405180910390a15050565b60606000805480602002602001604051908101604052809291908181526020018280548015610f7357602002820191906000526020600020905b8160009054906101000a900473ffffffffffffffffffffffffffffffffffffffff1673ffffffffffffffffffffffffffffffffffffffff1681526020019060010190808311610f29575b5050505050905090565b60036020528160005260406000208181548110610f9657fe5b90600052602060002001600091509150508054600181600116156101000203166002900480601f01602080910402602001604051908101604052809291908181526020018280546001816001161561010002031660029004801561103b5780601f106110105761010080835404028352916020019161103b565b820191906000526020600020905b81548152906001019060200180831161101e57829003601f168201915b505050505081565b6000818154811061105057fe5b906000526020600020016000915054906101000a900473ffffffffffffffffffffffffffffffffffffffff1681565b6005602052816000526040600020818154811061109857fe5b90600052602060002001600091509150508054600181600116156101000203166002900480601f01602080910402602001604051908101604052809291908181526020018280546001816001161561010002031660029004801561113d5780601f106111125761010080835404028352916020019161113d565b820191906000526020600020905b81548152906001019060200180831161112057829003601f168201915b505050505081565b828054600181600116156101000203166002900490600052602060002090601f016020900481019282601f1061118657805160ff19168380011785556111b4565b828001600101855582156111b4579182015b828111156111b3578251825591602001919060010190611198565b5b5090506111c191906111c5565b5090565b6111e791905b808211156111e35760008160009055506001016111cb565b5090565b9056fea265627a7a7231582020620590d2c03a5d0dc97f88755dad6b37ff81c8646d6c13cc8d71219f1ed40364736f6c63430005100032",
  "source": "pragma solidity 0.5.16;\n\ncontract Original {\n\n\n   \n    address[] public artistlist;\n    mapping(address => bool) isArtist;\n    mapping(string => bytes32) public ipfsHashestoNames;\n\n    // owners of art\n    mapping(address => string[]) public artOwnership;\n\n    // num of art items\n    mapping(address => uint256) public numOfItems;\n\n    // access to art\n    mapping(address => string[]) public controlAccess;\n\n\n    mapping(string => address payable) artToOwner;\n    // Events\n    event artSent(string _ipfsHash, address _address);\n    event payAuthor(\n        uint256 tipAmount,\n        address payable author\n    );\n\n    constructor() public {\n    }\n\n    function sendArt(string memory _ipfsHash, bytes32 _name) public {\n        bytes memory stringTest = bytes(_ipfsHash); \n        require (stringTest.length != 0);\n        artOwnership[msg.sender].push(_ipfsHash);\n        artToOwner[_ipfsHash] = msg.sender;\n        controlAccess[msg.sender].push(_ipfsHash);\n        numOfItems[msg.sender] ++;\n        ipfsHashestoNames[_ipfsHash] = _name;\n        if (!isArtist[msg.sender]) {\n            artistlist.push(msg.sender);\n            isArtist[msg.sender] = true;\n        }  \n        emit artSent(_ipfsHash, msg.sender);\n\n    }\n\n    function getAccess(string memory _ipfsHash) public payable {\n        require(msg.value > 0);\n        address payable _author = artToOwner[_ipfsHash];\n        _author.transfer(msg.value); \n        controlAccess[msg.sender].push(_ipfsHash);\n        emit payAuthor(msg.value, _author);\n    }\n\n    // Returns the array of items\n    function getArtistList() public view returns(address[] memory) {\n        return artistlist;\n    }\n\n    // Checks if the user has access to art\n    function ifAccess(string memory _ipfsHash) public view returns (bool) {\n\n       for ( uint8 i = 0; i < controlAccess[msg.sender].length; i ++) {\n         if ( keccak256(abi.encodePacked(controlAccess[msg.sender][i])) == keccak256(abi.encodePacked(_ipfsHash)) ) {\n            return true;\n         }\n       } \n       return false;\n    }\n   \n}\n",
  "sourcePath": "/Users/louise/Desktop/IPFS-Ethereum-Tutorial/contracts/Original.sol",
  "compiler": {
    "name": "solc",
    "version": "0.5.16+commit.9c3226ce.Emscripten.clang"
  },
  "schemaVersion": "3.4.3",
  "updatedAt": "2021-09-07T11:28:00.661Z",
  "networkType": "ethereum",
  "devdoc": {
    "methods": {}
  },
  "userdoc": {
    "methods": {}
  }
}